:020000040000FA
:10000000012820308300003083008B0020308300E3
:1000100008308F00003085008C00003083000030F5
:1000200085001228812081205330AB005630AD006E
:100030004830AF008830A8000230A7000030A6008A
:10004000A900261526088500260885000330A10092
:1000500047200030A100472047200508A300A31D2A
:1000600032282D2881202B08A7183C282D08271876
:100070003C280330A7002F08A300A7032611260859
:1000800085006B206B20261526088500782808300F
:10009000FE00A11B4C285328A61426088500261410
:1000A000260885005728261426088500572865202D
:1000B0002610A61026088500652003108310A10DC8
:1000C00003108310FE0B492808000330FF000000D6
:1000D000FF0B682808000830FE002614260885005B
:1000E00065202610260885006520FE0B6D28080077
:1000F000A80B3E288830A800A30B3E280030A300A0
:100100002D28FF30A4000000000000000000FF3098
:10011000A5000000000000000000A50B8928A40B2A
:040120008328080028
:04012400003400346F
:02400E00C230BE
:00000001FF
